:1000000012C02CC02BC02AC029C028C027C026C0BF
:1000100025C024C023C022C021C020C01FC01EC0D4
:100020001DC01CC01BC011241FBECFE5D4E0DEBF25
:10003000CDBF10E0A0E6B0E0E0EBF7E002C0059035
:100040000D92A036B107D9F710E0A0E6B0E001C0EC
:100050001D92A036B107E1F702D0A8C3D1CF80EF3F
:1000600087BB9FEF91BB84BB3E9A86B1876086B900
:10007000379A87B1807F87B9AA24C6B3C77011F4B5
:10008000AD9A01C0AD98369A349BFECF64B170E052
:1000900080E090E01BD2062F172FD82FC92E85B1F4
:1000A000982E8824B401882777FD8095982F10D248
:1000B0002D2F3C2DA901980111D1349AC13031F571
:1000C000472F382F292F862F942FA32FB22FBC0113
:1000D000CD012FE135E540E554E48AD220E030E05F
:1000E00040E85AE385D2062F172FD82FC92F862F25
:1000F000912FAD2FBC2FBC01CD0120E030E841E3B2
:1001000054E472D218160CF44FC061C0C23029F505
:10011000472F382F292F862F942FA32FB22FBC01C2
:10012000CD0120E635E540ED53E462D220E030E039
:1001300040E85AE35DD2062F172FD82FC92F862FFC
:10014000912FAD2FBC2FBC01CD012EEA37EC40EB37
:1001500053E44AD218166CF13AC0C43079F5472FEF
:10016000382F292F862F942FA32FB22FBC01CD011A
:1001700021EC3AEA46E253E43BD220E030E040E8AA
:100180005AE336D2062F172FD82FC92F862F912F3B
:10019000AD2FBC2FBC01CD0120E030E04EE053E498
:1001A00023D2181684F013C00A2D1A2DDA2DCA2D69
:1001B0000EC00A2D1A2DDA2DCA2D09C00A2D1A2DAE
:1001C000DA2DCA2D04C00A2D1A2DDA2DCA2D802F42
:1001D000912FAD2FBC2FBC01CD012D2F3C2FA9019C
:1001E000980106D220E030E040E05FE301D267D220
:1001F0006B017C018FE996E8A1E081509040A0401E
:10020000E1F700C00000C701B60120E030E048EC93
:1002100052E4C8D02FD1C62FD72FB62EC701B601B2
:1002200020E030E040E251E4BDD06B017C018C2F36
:100230009D2F880F991FBC01660F771F660F771FD0
:10024000860F971FBC0180E090E040D19B01AC017C
:10025000C701B60142D0D62FC72E082FC92F862F2F
:100260009C2DA02FBC2FBC01CD0104D1162FF72E41
:10027000E62E8D2F9C2DA02FBC2FBC01CD0120E0A0
:1002800030E040E251E4B4D1C62FD72F082FC92E59
:10029000BB0CBB0CBB0CBB0CB8BA812F9F2D880FBD
:1002A000991FBC01660F771F660F771F860F971F78
:1002B000BC0180E090E00AD19B01AC018C2F9D2F06
:1002C000A02FBC2DBC01CD0108D0D4D0EE0CEE0C7B
:1002D000EE0CEE0C6E0D62BBD0CE5058BB27AA2799
:1002E0000ED048C139D130F03ED120F031F49F3FDB
:1002F00011F41EF42EC10EF4E095E7FB24C1E92FA2
:100300004AD180F3BA17620773078407950718F07C
:1003100071F49EF562C10EF4E0950B2EBA2FA02D5C
:100320000B01B90190010C01CA01A0011124FF27A2
:10033000591B99F0593F50F4503E68F11A16F0409D
:10034000A22F232F342F4427585FF3CF469537959C
:100350002795A795F0405395C9F77EF41F16BA0B61
:10036000620B730B840BBAF09150A1F0FF0FBB1F0F
:10037000661F771F881FC2F70EC0BA0F621F731F58
:10038000841F48F4879577956795B795F7959E3FB5
:1003900008F0B3CF9395880F08F09927EE0F979543
:1003A000879508950CD0E6C0DED040F0D5D030F06F
:1003B00021F45F3F19F0C7C0511110C1CAC0EBD082
:1003C00098F39923C9F35523B1F3951B550BBB271C
:1003D000AA2762177307840738F09F5F5F4F220FC9
:1003E000331F441FAA1FA9F333D00E2E3AF0E0E8C2
:1003F00030D091505040E695001CCAF729D0FE2F0E
:1004000027D0660F771F881FBB1F2617370748079F
:10041000AB07B0E809F0BB0B802DBF01FF27935855
:100420005F4F2AF09E3F510568F08DC0D7C05F3FF7
:10043000ECF3983EDCF3869577956795B795F7953D
:100440009F5FC9F7880F911D9695879597F9089535
:10045000E1E0660F771F881FBB1F621773078407D1
:10046000BA0720F0621B730B840BBA0BEE1F88F7E0
:10047000E095089598D088F09F5790F0B92F99276C
:10048000B751A0F0D1F0660F771F881F991F1AF09F
:10049000BA95C9F712C0B13081F09FD0B1E008958C
:1004A0009CC0672F782F8827B85F39F0B93FCCF30D
:1004B000869577956795B395D9F73EF49095809595
:1004C000709561957F4F8F4F9F4F0895E89409C0B5
:1004D00097FB3EF490958095709561957F4F8F4F77
:1004E0009F4F9923A9F0F92F96E9BB279395F6958D
:1004F000879577956795B795F111F8CFFAF4BB0F0B
:1005000011F460FF1BC06F5F7F4F8F4F9F4F16C06E
:10051000882311F096E911C0772321F09EE8872FF8
:10052000762F05C0662371F096E8862F70E060E0B4
:100530002AF09A95660F771F881FDAF7880F96952D
:10054000879597F9089597F99F6780E870E060E0D4
:1005500008959FEF80EC089500240A94161617065C
:1005600018060906089500240A94121613061406A4
:1005700005060895092E0394000C11F4882352F007
:10058000BB0F40F4BF2B11F460FF04C06F5F7F4FBF
:100590008F4F9F4F089557FD9058440F551F59F0A6
:1005A0005F3F71F04795880F97FB991F61F09F3F60
:1005B00079F087950895121613061406551FF2CF89
:1005C0004695F1DF08C0161617061806991FF1CFD9
:1005D00086957105610508940895E894BB27662700
:1005E0007727CB0197F90895A8D008F48FEF0895E5
:1005F0000BD0C0CFB1DF28F0B6DF18F0952309F09B
:10060000A2CFA7CF1124EACFC6DFA0F3959FD1F3E5
:10061000950F50E0551F629FF001729FBB27F00DB0
:10062000B11D639FAA27F00DB11DAA1F649F662705
:10063000B00DA11D661F829F2227B00DA11D621F54
:10064000739FB00DA11D621F839FA00D611D221F0E
:10065000749F3327A00D611D231F849F600D211DF2
:10066000822F762F6A2F11249F5750408AF0E1F095
:1006700088234AF0EE0FFF1FBB1F661F771F881FDE
:1006800091505040A9F79E3F510570F05CCFA6CF26
:100690005F3FECF3983EDCF3869577956795B795C9
:1006A000F795E7959F5FC1F7FE2B880F911D9695F3
:1006B000879597F9089511F40EF44BCF62C073DF5C
:1006C000D0F39923D9F3CEF39F57550B87FF67D00B
:1006D0000024A0E640EA900180585695979528F4AA
:1006E000805C660F771F881F20F0261737074807A2
:1006F00030F4621B730B840B202931294A2BA695F9
:1007000017940794202531254A2758F7660F771F3D
:10071000881F20F026173707480730F4620B730B49
:10072000840B200D311D411DA09581F7B901842F47
:100730009158880F969587950895990F0008550F41
:10074000AA0BE0E8FEEF16161706E807F907C0F057
:1007500012161306E407F50798F0621B730B840B5F
:10076000950B39F40A2661F0232B242B252B21F439
:1007700008950A2609F4A140A6958FEF811D811DD9
:1007800008959F3F31F0915020F4879577956795B4
:10079000B795880F911D9695879597F90895915073
:1007A0005040660F771F881FD2F70895F894FFCF47
:00000001FF
