:1000000012C02CC02BC02AC029C028C027C026C0BF
:1000100025C024C023C022C021C020C01FC01EC0D4
:100020001DC01CC01BC011241FBECFE5D4E0DEBF25
:10003000CDBF11E0A0E6B0E0EAEFF3E102C0059029
:100040000D92A836B107D9F711E0A8E6B1E001C0DA
:100050001D92A836B107E1F702D0CEC9D1CFEF92F9
:10006000FF920F931F93CF93DF93CDB7DEB76B97BC
:100070000FB6F894DEBF0FBECDBFE7E3F0E080EF30
:100080008083E1E3F0E08FEF8083E4E3F0E080EF52
:100090008083A7E2B0E0E7E2F0E0808180648C93A7
:1000A000A6E2B0E0E6E2F0E0808187608C93A6E211
:1000B000B0E0E6E2F0E0808180688C93A7E2B0E0F7
:1000C000E7E2F0E08081807F8C93E6E3F0E08081DE
:1000D00087708F8B8F89882341F4A5E3B0E0E5E337
:1000E000F0E0808180628C9307C0A5E3B0E0E5E397
:1000F000F0E080818F7D8C9380E090E0A0E0B0E024
:10010000888F998FAA8FBB8F80E090E0A0E0B0E04D
:100110008B8B9C8BAD8BBE8BA6E2B0E0E6E2F0E071
:10012000808180648C93E6E2F0E08081882F90E00B
:10013000807190700097B9F3E4E2F0E08081882F3D
:1001400090E0A0E0B0E0BC01CD0133D6DC01CB01F2
:10015000888F998FAA8FBB8FE5E2F0E08081882F8E
:1001600090E0982F8827AA2797FDA095BA2FBC0169
:10017000CD0175D5DC01CB019C01AD01688D798D78
:100180008A8D9B8D08D3DC01CB01888F998FAA8F34
:10019000BB8FA6E2B0E0E6E2F0E0808180618C9364
:1001A0008F89813069F52FE135E540E554E4688DAC
:1001B000798D8A8D9B8D16D3DC01CB0120E030E058
:1001C00040E854E4BC01CD0107D4DC01CB018B8BAA
:1001D0009C8BAD8BBE8B20E030E841E354E46B890F
:1001E0007C898D899E89A8D418160CF068C080E09F
:1001F00090E0A0E0B0E08B8B9C8BAD8BBE8B5FC0A2
:100200008F89823069F520E635E540ED53E4688D4D
:10021000798D8A8D9B8DE6D2DC01CB0120E030E028
:1002200040E854E4BC01CD01D7D3DC01CB018B8B7A
:100230009C8BAD8BBE8B2EEA37EC40EB53E46B8985
:100240007C898D899E8978D418160CF038C080E09E
:1002500090E0A0E0B0E08B8B9C8BAD8BBE8B2FC071
:100260008F89843061F521EC3AEA46E253E4688DE7
:10027000798D8A8D9B8DB6D2DC01CB0120E030E0F8
:1002800040E854E4BC01CD01A7D3DC01CB018B8B4A
:100290009C8BAD8BBE8B20E030E04EE053E46B894D
:1002A0007C898D899E8948D418160CF008C080E09E
:1002B00090E0A0E0B0E08B8B9C8BAD8BBE8B2B894C
:1002C0003C894D895E896B897C898D899E898AD21A
:1002D000DC01CB0120E030E040E050E4BC01CD0186
:1002E0007BD3DC01CB018F839887A987BA878F8165
:1002F0009885A985BA85BC01CD01F8D7DC01CB0171
:100300008F87988BA98BBA8B8F859889A989BA8991
:100310008B879C87AD87BE8720E030E040E251E4C8
:100320006B857C858D859E8569D488230CF016C0ED
:100330001E821D821C821B826B857C858D859E851D
:1003400099D0DC01CB019A838983E8E3F0E08D81C9
:100350008083E2E3F0E089818083B7CE20E030E063
:1003600048EC52E46B857C858D859E8535D3DC0118
:10037000CB01BC01CD017ED0DC01CB019E838D83FE
:10038000E8E3F0E08D818295807F808320E030E09B
:1003900040E251E46B857C858D859E851DD3DC0113
:1003A000CB017C018D018D819E819C01220F331F29
:1003B000C901880F991F880F991F820F931FCC01C5
:1003C000A0E0B0E0BC01CD01F4D4DC01CB019C0184
:1003D000AD01C801B701B4D1DC01CB018B879C878B
:1003E000AD87BE876B857C858D859E8543D0DC017E
:1003F000CB019C838B8320E030E040E251E46B85AD
:100400007C858D859E85EED1DC01CB017C018D0143
:100410008B819C819C01220F331FC901880F991F7A
:10042000880F991F820F931FCC01A0E0B0E0BC01A0
:10043000CD01BFD4DC01CB019C01AD01C801B701E6
:100440007FD1DC01CB018B879C87AD87BE876B8515
:100450007C858D859E850ED0DC01CB019A838983B6
:10046000E2E3F0E08B81982F9295907F8981890F4C
:1004700080832BCEEF92FF920F931F937B018C0111
:1004800020E030E040E05FE488D388236CF020E097
:1004900030E040E05FE4C801B70152D13AD4605087
:1004A00070408040904803C0C801B70132D41F910A
:1004B0000F91FF90EF900895A0E0B0E0E1E6F2E048
:1004C000DCC62C015B01FA01DC019C91923008F43E
:1004D00032C1EB018881823008F42CC1943071F470
:1004E000843009F028C1F20191818981981709F4BB
:1004F00022C110E6412E10E0512E1DC1843009F4B6
:1005000019C18230A9F4923009F015C1CA01A201C3
:1005100028E0DA010D90AD01EC010992CE012150E5
:10052000C1F7E5018981E20199818923818300C1B5
:10053000923009F4FFC0E201CA80DB80EB018A81BE
:100540009B81E2012C813D814E815F81EB01EC803A
:10055000FD800E811F81B601681B790BDB0177FFDF
:1005600003C0709561957F4F603271050CF05DC0DE
:100570001A161B065CF566247724430181E090E09F
:10058000A0E0B0E0062E04C0880F991FAA1FBB1F71
:100590000A94D2F70197A109B1098E219F21A023C6
:1005A000B1230097A105B10529F0B1E06B2E712CA4
:1005B000812C912C04C016950795F794E7946A95C1
:1005C000D2F7E628F728082919293BC0AB2BC9F137
:1005D000C60ED71E66247724430181E090E0A0E098
:1005E000B0E0062E04C0880F991FAA1FBB1F0A94F3
:1005F000D2F70197A109B10982239323A423B5233C
:100600000097A105B10529F0A1E06A2E712C812C7B
:10061000912C04C056954795379527956A95D2F742
:1006200026293729482959290CC08C159D0534F0F5
:100630006C0120E030E040E050E003C0EE24FF24F5
:100640008701E2019981E5018981981709F443C086
:10065000992339F0E21AF30A040B150BA80197014C
:1006600004C02E193F09400B510B57FD08C01182E1
:10067000D382C28224833583468357831DC081E0A1
:100680008183D382C28288279927DC01821B930B46
:10069000A40BB50B84839583A683B7830DC0220F6B
:1006A000331F441F551F248335834683578382811C
:1006B0009381019793838283248135814681578179
:1006C000DA01C9010197A109B1098F5F9F4FAF4FAF
:1006D000BF4328F30BC09183D382C2822E0D3F1DEE
:1006E000401F511F248335834683578383E08083D3
:1006F00024813581468157815523D4F4C901AA2725
:1007000097FDA095BA2F81709070A070B07056952B
:10071000479537952795822B932BA42BB52B848354
:100720009583A683B7838281938101969383828385
:100730002F0101C02501C201E0E1CDB7DEB7B9C587
:10074000A0E2B0E0E5EAF3E0A2C569837A838B8397
:100750009C832D833E834F83588709E0E02EF12C44
:10076000EC0EFD1EB701CE010196BFD48E010F5EC7
:100770001F4FB801CE010596B8D48A8991E0892728
:100780008A8BAE01475E5F4FB801C70195DECDD3BE
:10079000E6E0A09698C5A0E2B0E0E0EDF3E077C512
:1007A00069837A838B839C832D833E834F83588711
:1007B00089E0E82EF12CEC0EFD1EB701CE0101966A
:1007C00094D48E010F5E1F4FB801CE0105968DD4D3
:1007D000AE01475E5F4FB801C7016EDEA6D3E6E00B
:1007E000A09671C5A0E2B0E0E7EFF3E046C56983EB
:1007F0007A838B839C832D833E834F83588799E034
:10080000E92EF12CEC0EFD1EB701CE0101966DD440
:100810008E010F5E1F4FB801CE01059666D49985F3
:10082000923088F089898230C0F0943019F4823097
:1008300029F009C0843029F4923079F460E670E040
:10084000C6C0923041F420E09A858A89981321E04D
:100850002A87B701BCC0823041F420E09A858A899A
:10086000981321E02A8BB801B2C0CD84DE84EF84D6
:10087000F8880D891E892F89388D88249924540180
:1008800040E050E060E070E0442455243201E0E0B4
:10089000F0E0C60181709070892BD9F0800E911E16
:1008A000A21EB31EDB01CA01840D951DA61DB71D36
:1008B00040E050E060E070E080169106A206B306CA
:1008C00020F441E050E060E070E0480F591F6A1FDB
:1008D0007B1F440C551C661C771C37FF08C081E049
:1008E00090E0A0E0B0E0482A592A6A2A7B2A319693
:1008F000E032F10549F0000F111F221F331FF6945B
:10090000E794D794C794C5CF8B899C892B853C8568
:10091000820F931F02969C8F8B8F1A8E9A858A89DD
:10092000981711F081E08A8F2B8D3C8D17C0CA017A
:1009300081709070892B61F0B694A79497948794F6
:1009400080E090E0A0E0B0E8882A992AAA2ABB2A91
:1009500076956795579547952F5F3F4F77FDE7CF82
:10096000C9010BC0440F551F661F771FB7FC4160BC
:10097000880C991CAA1CBB1C01974030A0E05A07A8
:10098000A0E06A07A0E47A0768F39C8F8B8FDB01F5
:10099000CA018F779070A070B07080349105A10566
:1009A000B10561F447FD0AC081149104A104B104AA
:1009B00029F0405C5F4F6F4F7F4F40784D8F5E8FC7
:1009C0006F8F78A383E0898FBE01675E7F4FCB0175
:1009D000ACD2E0E1A0966DC4A8E1B0E0E1EFF4E0B4
:1009E00052C469837A838B839C832D833E834F8398
:1009F00058878E01075F1F4FB801CE01019675D34E
:100A000081E1E82EF12CEC0EFD1EB701CE0105961A
:100A10006CD339853230F8F02989223010F4B701CF
:100A200086C08A859A8989278A87343011F03230C6
:100A300029F4321781F460E670E079C0243039F48B
:100A40001D861E861F86188A1C861B8604C02230BF
:100A500021F484E08987B8016AC06B857C858B8925
:100A60009C89681B790B7C876B872D853E854F851C
:100A700058898D899E89AF89B88D281739074A070B
:100A80005B0740F4220F331F441F551F6150704015
:100A90007C876B87A12CB12CC12C10E4D12EEE24C5
:100AA000FF24870160E070E0281739074A075B07D9
:100AB00040F0EA28FB280C291D29281B390B4A0B7A
:100AC0005B0BD694C794B794A794220F331F441F8F
:100AD000551F6F5F7F4F6F31710531F7D801C70127
:100AE0008F779070A070B07080349105A105B1052A
:100AF000B9F4E7FC15C0211531054105510581F018
:100B000080E490E0A0E0B0E0E80EF91E0A1F1B1F91
:100B100080E89FEFAFEFBFEFE822F9220A231B2303
:100B2000ED86FE860F87188BBE01675F7F4FCB0176
:100B3000FCD1EAE06896C3C3A8E1B0E0E1EAF5E0E1
:100B4000A6C369837A838B839C832D833E834F83E3
:100B5000588789E0E82EF12CEC0EFD1EB701CE017E
:100B60000196C3D28E010F5E1F4FB801CE010596CC
:100B7000BCD28985823058F08989823040F0B80132
:100B8000C70123D3282F332727FD309502C02FEF2D
:100B90003FEFC901E6E0689696C3A8E1B0E0E2ED58
:100BA000F5E075C369837A838B839C832D833E83B1
:100BB0004F83588789E0E82EF12CEC0EFD1EB7011B
:100BC000CE01019692D28E010F5E1F4FB801CE0169
:100BD00005968BD28985823058F08989823040F021
:100BE000B801C701F2D2282F332727FD309502C064
:100BF0002FEF3FEFC901E6E0689665C3A8E1B0E0DA
:100C0000E3E0F6E044C369837A838B839C832D837E
:100C10003E834F83588789E0E82EF12CEC0EFD1EB1
:100C2000B701CE01019661D28E010F5E1F4FB80150
:100C3000CE0105965AD28985823058F08989823052
:100C400040F0B801C701C1D2282F332727FD3095C6
:100C500002C021E030E0C901E6E0689634C3A8E0B4
:100C6000B0E0E4E3F6E010C39B01AC0183E08983CC
:100C7000DA01C9018827B7FD83959927AA27BB27E1
:100C8000B82E211531054105510519F482E08983FB
:100C900039C08823A9F0203080E0380780E0480779
:100CA00080E8580729F460E070E080E09FEC2EC0F7
:100CB000EE24FF248701E21AF30A040B150B02C08D
:100CC00079018A018EE1C82ED12CDC82CB82ED82A3
:100CD000FE820F831887C801B701DAD00197181672
:100CE000190684F4082E04C0EE0CFF1C001F111F0F
:100CF0000A94D2F7ED82FE820F831887C81AD90AA8
:100D0000DC82CB82BA82CE0101960FD1E9E028962F
:100D1000D7C2ACE0B0E0EEE8F6E0BDC269837A830A
:100D20008B839C83BE016B5F7F4FCE010196DDD12B
:100D30008D818230A9F1823098F1843021F48E8146
:100D4000882359F40FC02F81388537FD29C06E8163
:100D50002F31310564F0662329F020E030E040E0D7
:100D600050E822C02FEF3FEF4FEF5FE71DC08EE14D
:100D700090E0821B930B29853A854B855C8504C0E6
:100D800056954795379527958A95D2F7662361F052
:100D900050954095309521953F4F4F4F5F4F04C080
:100DA00020E030E040E050E0CA01B901E2E02C96DA
:100DB0008EC2A8E0B0E0EEEDF6E067C27B018C01E8
:100DC000611571058105910519F482E0898359C087
:100DD00083E089838EE1C82ED12CDC82CB82ED8228
:100DE000FE820F831887C801B70152D0BC01615041
:100DF000704077FF33C0EE27FF27E61BF70B20E09C
:100E000030E040E050E081E090E0A0E0B0E00E2E65
:100E100004C0880F991FAA1FBB1F0A94D2F701971D
:100E2000A109B1098E219F21A023B1230097A1051B
:100E3000B10521F021E030E040E050E004C016951B
:100E40000795F794E794EA95D2F72E293F29402B8E
:100E5000512B2D833E834F8358870FC06115710539
:100E600081F0062E04C0EE0CFF1C001F111F0A9417
:100E7000D2F7ED82FE820F831887C61AD70ADC826A
:100E8000CB821A82CE01019650D0E8E0289619C292
:100E9000EF92FF920F931F939B01AC01203080E0F3
:100EA000380781E0480780E0580780F42F3F31057C
:100EB0004105510509F020F4EE24FF24870119C0F3
:100EC00068E0E62EF12C012D112D13C0203080E0BA
:100ED000380780E0480781E0580730F490E1E92EB8
:100EE000F12C012D112D05C088E1E82EF12C012DEA
:100EF000112D80E290E0A0E0B0E08E199F09A00BD8
:100F0000B10B04C05695479537952795EA94D2F7CB
:100F1000F901E859FF4F2081821B9109A109B1090C
:100F20001F910F91FF90EF9008959F92AF92BF9203
:100F3000CF92DF92EF92FF920F931F93EE24FF2444
:100F40008701FC0124813581468157819180808110
:100F5000823010F44061A2C0843009F49BC082301A
:100F600029F420E030E040E050E005C021153105D3
:100F70004105510519F4E0E0F0E092C082819381CF
:100F80006FEF823896070CF05AC062E87FEF681B5B
:100F9000790B6A3171052CF020E030E040E050E040
:100FA0002AC0AA24BB24650181E090E0A0E0B0E063
:100FB000062E04C0880F991FAA1FBB1F0A94D2F7E0
:100FC0000197A109B10982239323A423B523009794
:100FD000A105B10529F071E0A72EB12CC12CD12CAF
:100FE00004C056954795379527956A95D2F72A29D3
:100FF0003B294C295D29DA01C9018F779070A070D7
:10100000B07080349105A105B10539F427FF09C0FE
:10101000205C3F4F4F4F5F4F04C0215C3F4F4F4F0D
:101020005F4F80E090E0203060E0360760E04607E8
:1010300060E4560710F081E090E0FC0123C08038A6
:10104000910544F5FC01E158FF4FDA01C9018F77A2
:101050009070A070B07080349105A105B10539F48D
:1010600027FF09C0205C3F4F4F4F5F4F04C0215CFA
:101070003F4F4F4F5F4F57FF05C0569547953795E8
:101080002795319687E056954795379527958A9508
:10109000D1F706C020E030E040E050E0EFEFF0E0B4
:1010A000E22EF32E942F9F77802F8078892B9E2F0E
:1010B0009795992797958F77082F092B9E2F9695AF
:1010C000812F8078892B9794992497948F77182F64
:1010D0001929C801B7011F910F91FF90EF90DF9080
:1010E000CF90BF90AF909F900895CF93DF93FC0176
:1010F000DB01208131819281492F4F7750E0991F88
:101100009927991F8381E82FEE0FE92B6E2F70E04E
:10111000881F8827881FED018983EE2371F521152B
:1011200031054105510511F482E02FC06E57704022
:10113000FD017383628367E0220F331F441F551F35
:101140006A95D1F783E08C930AC0220F331F441FA6
:10115000551FED018A819B8101979B838A832030F3
:10116000E0E03E07E0E04E07E0E45E0770F3ED01EB
:101170002C833D834E835F8325C0EF3F79F4211597
:1011800031054105510519F484E08C931BC044FFDF
:1011900003C081E08C9311C01C920FC06F57704048
:1011A000ED017B836A8383E08C9387E0220F331FFA
:1011B000441F551F8A95D1F75064FD012483358360
:1011C00046835783DF91CF910895CF93DF93DC015E
:1011D000FB019C91923008F446C08081823008F473
:1011E00042C0943049F4ED016981843079F5818100
:1011F00090E0861B91093CC0843021F0923031F49C
:101200008230A1F18181882371F52AC0ED016981C5
:101210008230E1F081816817C9F4ED012A813B81B8
:1012200082819381821793078CF028173907B4F0D5
:10123000ED018C819D81AE81BF8124813581468104
:101240005781281739074A075B0718F4662341F4CA
:101250000AC082179307A407B50740F4662319F460
:101260008FEF9FEF05C081E090E002C080E090E04A
:10127000DF91CF9108952F923F924F925F926F929C
:101280007F928F929F92AF92BF92CF92DF92EF9216
:10129000FF920F931F93CF93DF93CDB7DEB7CA1B97
:1012A000DB0B0FB6F894DEBF0FBECDBF09942A88C2
:1012B000398848885F846E847D848C849B84AA846A
:1012C000B984C884DF80EE80FD800C811B81AA81F7
:1012D000B981CE0FD11D0FB6F894DEBF0FBECDBFC2
:1012E000ED01089511F40EF45BC04AC06BD0D0F349
:1012F0009923D9F3CEF39F57550B87FF54D05695BA
:101300009795B0E020F4660F771F881FBB1F1F93CF
:101310000F9300249001A0018001F001A0E80E0FBE
:101320001F1F0A1E511D601B710B8009B50B48F46D
:10133000600F711F801DB51F0E1B1F0B0A0A51097C
:1013400007C02E0F3F1F4A1F0E0F1F1F0A1E511DE1
:10135000660F771F881FBB1FA695F795E795F8F6D0
:101360000617170708065B07211D311D411D0F9148
:101370001F91B901842F9158880F969587950895EC
:101380009F3F49F0915028F4869577956795B795DA
:101390009F5F80389F4F880F9695879597F908959E
:1013A0009FEF80EC089591505040660F771F881F83
:1013B000D2F7089557FD9058440F551F59F05F3FDD
:1013C00071F04795880F97FB991F61F09F3F79F067
:1013D00087950895121613061406551FF2CF4695E9
:1013E000F1DF08C0161617061806991FF1CF86956B
:0A13F0007105610508940895FFCF10
:1013FA0000000000000000000001020203030303D2
:10140A00040404040404040405050505050505058A
:10141A00050505050505050506060606060606066A
:10142A000606060606060606060606060606060652
:10143A00060606060606060607070707070707073A
:10144A000707070707070707070707070707070722
:10145A000707070707070707070707070707070712
:10146A000707070707070707070707070707070702
:10147A0007070707070707070808080808080808EA
:10148A0008080808080808080808080808080808D2
:10149A0008080808080808080808080808080808C2
:1014AA0008080808080808080808080808080808B2
:1014BA0008080808080808080808080808080808A2
:1014CA000808080808080808080808080808080892
:1014DA000808080808080808080808080808080882
:1014EA000808080808080808080808080808080872
:0814FA000808080808080808AA
:00000001FF
