:1000000012C02CC02BC02AC029C028C027C026C0BF
:1000100025C024C023C022C021C020C01FC01EC0D4
:100020001DC01CC01BC011241FBECFE5D4E0DEBF25
:10003000CDBF10E0A0E6B0E0E2E1F7E002C005903D
:100040000D92A036B107D9F710E0A0E6B0E001C0EC
:100050001D92A036B107E1F702D059C3D1CF80EF8E
:1000600087BB9FEF91BB84BB3E9A86B1876086B900
:10007000379A87B1807F87B9EE24C6B3C77011F471
:10008000AD9A01C0AD98369A349BFECF64B170E052
:1000900080E090E023D2162FD72F082FF92E85B1BC
:1000A000782E6624B301882777FD8095982F18D283
:1000B000502F012F1D2F252F3F2DA901980112D15F
:1000C000349AC13031F5472F382F292F862F942F9E
:1000D000A32FB22FBC01CD012FE135E540E554E45B
:1000E000B3D220E030E040E85AE3AED2062F172F1B
:1000F000D82FC92F862F912FAD2FBC2FBC01CD013A
:1001000020E030E841E354E49BD218160CF45CC0C4
:100110004DC0C23029F5472F382F292F862F942F15
:10012000A32FB22FBC01CD0120E635E540ED53E40D
:100130008BD220E030E040E85AE386D2062F172F1A
:10014000D82FC92F862F912FAD2FBC2FBC01CD01E9
:100150002EEA37EC40EB53E473D21816D4F126C0E4
:10016000C430E1F5472F382F292F862F942FA32F46
:10017000B22FBC01CD0121EC3AEA46E253E464D24D
:1001800020E030E040E85AE35FD2062F172FD82F47
:10019000C92F862F912FAD2FBC2FBC01CD0120E0A0
:1001A00030E04EE053E44CD21816ECF0802F912F43
:1001B000AD2FBC2FBC01CD0120E030E040E251E486
:1001C000F5D08823F4F413C00E2D1E2DDE2DCE2D78
:1001D0000EC00E2D1E2DDE2DCE2D09C00E2D1E2D76
:1001E000DE2DCE2D04C00E2D1E2DDE2DCE2D18BAE7
:1001F000802F912FAD2FBC2FBC01CD0143D162BB0D
:100200003CCF802F912FAD2FBC2FBC01CD0120E022
:1002100030E048EC52E4CED035D1F62ED72E862FE2
:100220008295807F88BB802F912FAD2FBC2FBC0182
:10023000CD0120E030E040E251E4BCD04B015C0154
:100240008F2D9D2D880F991FBC01660F771F660F9C
:10025000771F860F971FBC0180E090E03FD19B0184
:10026000AC01C501B4013DD0062F172FD82FC92FDF
:10027000862F912FAD2FBC2FBC01CD0103D1F62EBF
:10028000D72E862E802F912FAD2FBC2FBC01CD01F4
:1002900020E030E040E251E4D7D1C62FD72F182F0D
:1002A000092F8F2D9D2D880F991FBC01660F771F79
:1002B000660F771F860F971FBC0180E090E00ED17C
:1002C0009B01AC018C2F9D2FA12FB02FBC01CD0124
:1002D00008D0D8D0880C880C880C880C680D62BBBC
:1002E000CCCE5058BB27AA270ED070C161D130F0B8
:1002F00066D120F031F49F3F11F41EF456C10EF484
:10030000E095E7FB4CC1E92F72D180F3BA17620781
:1003100073078407950718F071F49EF58AC10EF4EF
:10032000E0950B2EBA2FA02D0B01B90190010C0105
:10033000CA01A0011124FF27591B99F0593F50F41D
:10034000503E68F11A16F040A22F232F342F442775
:10035000585FF3CF469537952795A795F04053956D
:10036000C9F77EF41F16BA0B620B730B840BBAF03D
:100370009150A1F0FF0FBB1F661F771F881FC2F7A8
:100380000EC0BA0F621F731F841F48F487957795BC
:100390006795B795F7959E3F08F0B3CF9395880F73
:1003A00008F09927EE0F979587950895D4D008F413
:1003B00081E008950CD00AC102D140F0F9D030F0AC
:1003C00021F45F3F19F0EBC0511134C1EEC00FD1E1
:1003D00098F39923C9F35523B1F3951B550BBB270C
:1003E000AA2762177307840738F09F5F5F4F220FB9
:1003F000331F441FAA1FA9F333D00E2E3AF0E0E8B2
:1004000030D091505040E695001CCAF729D0FE2FFD
:1004100027D0660F771F881FBB1F2617370748078F
:10042000AB07B0E809F0BB0B802DBF01FF27935845
:100430005F4F2AF09E3F510568F0B1C0FBC05F3F9F
:10044000ECF3983EDCF3869577956795B795F7952D
:100450009F5FC9F7880F911D9695879597F9089525
:10046000E1E0660F771F881FBB1F621773078407C1
:10047000BA0720F0621B730B840BBA0BEE1F88F7D0
:10048000E0950895BCD088F09F5790F0B92F992738
:10049000B751A0F0D1F0660F771F881F991F1AF08F
:1004A000BA95C9F712C0B13081F0C3D0B1E0089558
:1004B000C0C0672F782F8827B85F39F0B93FCCF3D9
:1004C000869577956795B395D9F73EF49095809585
:1004D000709561957F4F8F4F9F4F0895E89409C0A5
:1004E00097FB3EF490958095709561957F4F8F4F67
:1004F0009F4F9923A9F0F92F96E9BB279395F6957D
:10050000879577956795B795F111F8CFFAF4BB0FFA
:1005100011F460FF1BC06F5F7F4F8F4F9F4F16C05E
:10052000882311F096E911C0772321F09EE8872FE8
:10053000762F05C0662371F096E8862F70E060E0A4
:100540002AF09A95660F771F881FDAF7880F96951D
:10055000879597F90895990F0008550FAA0BE0E8C1
:10056000FEEF16161706E807F907C0F01216130675
:10057000E407F50798F0621B730B840B950B39F4B5
:100580000A2661F0232B242B252B21F408950A261B
:1005900009F4A140A6958FEF811D811D089597F95B
:1005A0009F6780E870E060E008959FEF80EC089519
:1005B00000240A9416161706180609060895002442
:1005C0000A9412161306140605060895092E0394BC
:1005D000000C11F4882352F0BB0F40F4BF2B11F430
:1005E00060FF04C06F5F7F4F8F4F9F4F089557FD8F
:1005F0009058440F551F59F05F3F71F04795880F91
:1006000097FB991F61F09F3F79F087950895121627
:1006100013061406551FF2CF4695F1DF08C01616D3
:1006200017061806991FF1CF869571056105089484
:100630000895E894BB2766277727CB0197F908959B
:100640008ADF08F48FEF08950BD0C0CFB1DF28F018
:10065000B6DF18F0952309F0A2CFA7CF1124EACF77
:10066000C6DFA0F3959FD1F3950F50E0551F629F11
:10067000F001729FBB27F00DB11D639FAA27F00DFB
:10068000B11DAA1F649F6627B00DA11D661F829F22
:100690002227B00DA11D621F739FB00DA11D621F07
:1006A000839FA00D611D221F749F3327A00D611D24
:1006B000231F849F600D211D822F762F6A2F112406
:1006C0009F5750408AF0E1F088234AF0EE0FFF1F59
:1006D000BB1F661F771F881F91505040A9F79E3F90
:1006E000510570F05CCFA6CF5F3FECF3983EDCF392
:1006F000869577956795B795F795E7959F5FC1F7CD
:10070000FE2B880F911D9695879597F90895F8947B
:02071000FFCF19
:00000001FF
